:100000000C9433000C943D020C9466020C948F0205
:100010000C94CB030C94CB030C94CB030C94CB0328
:100020000C94CB030C94CB030C94CB030C94CB0318
:100030000C94CB030C94CB030C94CB030C94CB0308
:100040000C94CB030C94CB030C94CB030C94CB03F8
:100050000C94CB030060007180007100770007A44E
:100060000077007E800011241FBECFE5D8E0DEBF00
:10007000CDBFE4E5F0E040E017C0B591A591359122
:100080002591059107FD0CC095918591EF01F92F00
:10009000E82F05900D92A217B307D9F7FE0104C00F
:1000A0001D92A217B307E1F7E536F40731F70E9476
:0A00B000C1030C94B003F894FFCFD5
:1000BA00683008F0C0C0843008F0BDC08130A9F1B2
:1000CA0038F0823009F45EC0833009F488C008959C
:1000DA00423059F42AB381E090E002C0880F991F98
:1000EA006A95E2F7822B8ABB0895413061F42AB3FC
:1000FA0081E090E002C0880F991F6A95E2F7809527
:10010A0082238ABB0895411196C02AB381E090E008
:10011A0002C0880F991F6A95E2F7982F909592234B
:10012A009ABB9BB3892B8BBB0895423059F427B3F2
:10013A0081E090E002C0880F991F6A95E2F7822B4E
:10014A0087BB0895413061F427B381E090E002C093
:10015A00880F991F6A95E2F78095822387BB0895D5
:10016A00411169C027B381E090E002C0880F991F4E
:10017A006A95E2F7982F9095922397BB98B3892BAB
:10018A0088BB0895423059F424B381E090E002C05C
:10019A00880F991F6A95E2F7822B84BB0895413034
:1001AA0061F424B381E090E002C0880F991F6A9538
:1001BA00E2F78095822384BB089541113CC024B3A1
:1001CA0081E090E002C0880F991F6A95E2F7982FA4
:1001DA009095922394BB95B3892B85BB08954230A1
:1001EA0059F421B381E090E002C0880F991F6A9503
:1001FA00E2F7822B81BB0895413061F421B381E09B
:10020A0090E002C0880F991F6A95E2F780958223D1
:10021A0081BB089541110FC021B381E090E002C073
:10022A00880F991F6A95E2F7982F9095922391BBB0
:08023A0092B3892B82BB0895E9
:10024200683008F06FC0843008F06CC0813001F172
:1002520030F08230B1F1833009F44CC0089541305E
:1002620059F42BB381E090E002C0880F991F6A9580
:10027200E2F7822B8BBB08952BB381E090E002C0A2
:10028200880F991F6A95E2F7809582238BBB0895A8
:10029200413059F428B381E090E002C0880F991FE1
:1002A2006A95E2F7822B88BB089528B381E090E03B
:1002B20002C0880F991F6A95E2F78095822388BB56
:1002C2000895413059F425B381E090E002C0880FCF
:1002D200991F6A95E2F7822B85BB089525B381E0C9
:1002E20090E002C0880F991F6A95E2F780958223F9
:1002F20085BB0895413059F422B381E090E002C0F9
:10030200880F991F6A95E2F7822B82BB089522B368
:1003120081E090E002C0880F991F6A95E2F780950C
:06032200822382BB089556
:100328008130A9F028F0823009F1833071F1089505
:10033800623019F48FEF8ABB0895611104C01ABAAC
:100348008FEF8BBB0895613071F51ABA089562304A
:1003580019F48FEF87BB0895611104C017BA8FEFA6
:1003680088BB08956130F9F417BA0895623019F41A
:100378008FEF84BB0895611104C014BA8FEF85BB59
:100388000895613081F414BA0895623019F48FEF3A
:1003980081BB0895611104C011BA8FEF82BB089523
:0803A800613009F411BA089557
:1003B00080917100863021F48BB780648BBF03C0BD
:1003C0008BB78F7B8BBF80917200873021F48BB706
:1003D00080688BBF03C08BB78F778BBF8091730012
:1003E000853021F48BB780628BBF03C08BB78F7DC4
:1003F0008BBFE1E7F0E0938185B7892B85BF8481CE
:1004000090E0880F991F880F991F95B7892B85BF9A
:10041000858120E4829FC001112494B7892B84BF79
:0204200008953D
:1004220062E080E00E94940142E060E081E00E948C
:100432005D0042E062E081E00E945D0040E062E037
:1004420081E00E9421012FEF89EF90E0215080404E
:100452009040E1F700C0000082E30E94DD0280E2EA
:100462000E94DD028EE00E94DD0286E00E94DD0233
:0804720081E00E94DD02089503
:10047A001F920F920FB60F9211242F933F934F930F
:10048A005F936F937F938F939F93AF93BF93EF93F2
:10049A00FF93E0917B00F0917C00309709F0099579
:1004AA00FF91EF91BF91AF919F918F917F916F9142
:1004BA005F914F913F912F910F900FBE0F901F9018
:0204CA00189583
:1004CC001F920F920FB60F9211242F933F934F93BD
:1004DC005F936F937F938F939F93AF93BF93EF93A0
:1004EC00FF93E0917900F0917A00309709F009952B
:1004FC00FF91EF91BF91AF919F918F917F916F91F0
:10050C005F914F913F912F910F900FBE0F901F90C5
:02051C00189530
:10051E001F920F920FB60F9211242F933F934F936A
:10052E005F936F937F938F939F93AF93BF93EF934D
:10053E00FF93E0917700F0917800309709F00995DC
:10054E00FF91EF91BF91AF919F918F917F916F919D
:10055E005F914F913F912F910F900FBE0F901F9073
:02056E001895DE
:1005700010BC87E689B980B5806880BD80B58F7B67
:1005800080BD8BB182608BB980B5826080BD80B543
:10059000846080BD8AB18B7F8AB980B58F7E80BD33
:1005A00080B58F7D80BD80B5877F80BD8AB1806139
:0A05B0008AB98AB188608AB90895FB
:1005BA00CF93C82F682F607F80E00E94860340E0B7
:1005CA0060E081E00E9421010E9496038FE891E099
:1005DA000197F1F700C000006C2F6295607F80E000
:1005EA000E9486030E9496038FE99FE00197F1F724
:0805FA0000C00000CF9108953C
:1006020087B3806287BB87B3806887BB87B380610B
:1006120087BB87B38F7B87BB88B3806188BB8DB173
:1006220080648DB98DB180618DB98DB181608DB9D4
:0E0632008DB182608DB98EB18E7F8EB9089524
:100640008FB780688FBF62E08BEB93E00E944E0310
:1006500061E088E393E00E944E030E94B8020E948A
:1006600001030E9463030E94D8010E9411020895B1
:10067000CF93C0E008C0EC2FF0E0E05AFF4F80813C
:100680000E94A503CF5F80917D00C817A0F38AE286
:0C0690000E94A50310927D00CF910895F8
:10069C00613029F490937C0080937B000895623044
:1006AC0029F490937A00809379000895633021F4B3
:0A06BC009093780080937700089572
:1006C60081B38B7F81BB82B3846082BB81B3877F1A
:1006D60081BB82B3886082BB87B38B7F87BB88B3BD
:0606E600846088BB08954A
:1006EC000E94C60380937000E0917D00F0E0E05A18
:1006FC00FF4F808380917D008F5F80937D000895F4
:10070C00813041F028F0823039F0833039F008958F
:10071C006BBB089568BB089565BB089562BB0895D3
:10072C0041E062E081E00E94210182E08A95F1F7CC
:0E073C0000C040E062E081E00E9421010895CB
:10074A0098B39F7E98BB8FB9779BFECF88B38061A1
:06075A0088BB8FB1089579
:10076000EC010E94D0030E94CF03CE010E94D1036E
:06077000CE010E94CD0342
:0C07760080917D00815080937D000895EB
:0A0782000E9420030E947603FDCFC1
:0A078C005F9BFECF8CB190E0089552
:040796000C940000BF
:04079A000E945B005E
:02079E000895BC
:0207A0000895BA
:0207A2000895B8
:0607A4000607000202003E
:00000001FF
