:100000000C942D000C94FE010C9427020C945002C9
:100010000C946F030C946F030C946F030C946F0398
:100020000C946F030C946F030C946F030C946F0388
:100030000C946F030C946F030C946F030C946F0378
:100040000C946F030C946F030C946F030C946F0368
:100050000C946F0300600078800011241FBECFE570
:10006000D8E0DEBFCDBFE4E5F0E040E017C0B591D9
:10007000A59135912591059107FD0CC0959185912C
:10008000EF01F92FE82F05900D92A217B307D9F7CA
:10009000FE0104C01D92A217B307E1F7E935F4078A
:0E00A00031F70E9465030C945503F894FFCFCE
:1000AE00683008F0C0C0843008F0BDC08130A9F1BE
:1000BE0038F0823009F45EC0833009F488C00895A8
:1000CE00423059F42AB381E090E002C0880F991FA4
:1000DE006A95E2F7822B8ABB0895413061F42AB308
:1000EE0081E090E002C0880F991F6A95E2F7809533
:1000FE0082238ABB0895411196C02AB381E090E015
:10010E0002C0880F991F6A95E2F7982F9095922357
:10011E009ABB9BB3892B8BBB0895423059F427B3FE
:10012E0081E090E002C0880F991F6A95E2F7822B5A
:10013E0087BB0895413061F427B381E090E002C09F
:10014E00880F991F6A95E2F78095822387BB0895E1
:10015E00411169C027B381E090E002C0880F991F5A
:10016E006A95E2F7982F9095922397BB98B3892BB7
:10017E0088BB0895423059F424B381E090E002C068
:10018E00880F991F6A95E2F7822B84BB0895413040
:10019E0061F424B381E090E002C0880F991F6A9544
:1001AE00E2F78095822384BB089541113CC024B3AD
:1001BE0081E090E002C0880F991F6A95E2F7982FB0
:1001CE009095922394BB95B3892B85BB08954230AD
:1001DE0059F421B381E090E002C0880F991F6A950F
:1001EE00E2F7822B81BB0895413061F421B381E0A7
:1001FE0090E002C0880F991F6A95E2F780958223DE
:10020E0081BB089541110FC021B381E090E002C07F
:10021E00880F991F6A95E2F7982F9095922391BBBC
:08022E0092B3892B82BB0895F5
:10023600683008F06FC0843008F06CC0813001F17E
:1002460030F08230B1F1833009F44CC0089541306A
:1002560059F42BB381E090E002C0880F991F6A958C
:10026600E2F7822B8BBB08952BB381E090E002C0AE
:10027600880F991F6A95E2F7809582238BBB0895B4
:10028600413059F428B381E090E002C0880F991FED
:100296006A95E2F7822B88BB089528B381E090E047
:1002A60002C0880F991F6A95E2F78095822388BB62
:1002B6000895413059F425B381E090E002C0880FDB
:1002C600991F6A95E2F7822B85BB089525B381E0D5
:1002D60090E002C0880F991F6A95E2F78095822305
:1002E60085BB0895413059F422B381E090E002C005
:1002F600880F991F6A95E2F7822B82BB089522B375
:1003060081E090E002C0880F991F6A95E2F7809518
:06031600822382BB089562
:10031C008130A9F028F0823009F1833071F1089511
:10032C00623019F48FEF8ABB0895611104C01ABAB8
:10033C008FEF8BBB0895613071F51ABA0895623056
:10034C0019F48FEF87BB0895611104C017BA8FEFB2
:10035C0088BB08956130F9F417BA0895623019F426
:10036C008FEF84BB0895611104C014BA8FEF85BB65
:10037C000895613081F414BA0895623019F48FEF46
:10038C0081BB0895611104C011BA8FEF82BB08952F
:08039C00613009F411BA089563
:1003A40062E080E00E948E0142E060E081E00E9411
:1003B400570042E062E081E00E94570040E062E0C2
:1003C40081E00E941B012FEF89EF90E021508040D3
:1003D4009040E1F700C0000082E30E94A00280E2A6
:1003E4000E94A0028EE00E94A00286E00E94A00269
:0803F40081E00E94A0020895BF
:1003FC001F920F920FB60F9211242F933F934F938E
:10040C005F936F937F938F939F93AF93BF93EF9370
:10041C00FF93E0917400F0917500309709F0099505
:10042C00FF91EF91BF91AF919F918F917F916F91C0
:10043C005F914F913F912F910F900FBE0F901F9096
:02044C00189501
:10044E001F920F920FB60F9211242F933F934F933B
:10045E005F936F937F938F939F93AF93BF93EF931E
:10046E00FF93E0917200F0917300309709F00995B7
:10047E00FF91EF91BF91AF919F918F917F916F916E
:10048E005F914F913F912F910F900FBE0F901F9044
:02049E001895AF
:1004A0001F920F920FB60F9211242F933F934F93E9
:1004B0005F936F937F938F939F93AF93BF93EF93CC
:1004C000FF93E0917000F0917100309709F0099569
:1004D000FF91EF91BF91AF919F918F917F916F911C
:1004E0005F914F913F912F910F900FBE0F901F90F2
:0204F00018955D
:1004F20080E00E946A03809377008A32A9F40E9406
:10050200480380E690E00E940A0380E006C0E82FDC
:10051200F0E0E05AFF4F10828F5F909176008917CA
:10052200B0F310927600089590917600E92FF0E0F2
:0E053200E05AFF4F80839F5F909376000895FC
:10054000CF93C82F682F607F80E00E94290340E08E
:1005500060E081E00E941B010E9439038FE891E076
:100560000197F1F700C000006C2F6295607F80E07A
:100570000E9429030E9439038FE99FE00197F1F758
:0805800000C00000CF910895B6
:10058800CF93C82F682F607F80E00E94290341E045
:1005980060E081E00E941B010E9439038FE891E02E
:1005A8000197F1F700C000006C2F6295607F80E032
:1005B8000E9429030E9439038FE99FE00197F1F710
:0805C80000C00000CF9108956E
:1005D00087B38F7D87BB87B38F7787BB87B38F7ECA
:1005E00087BB87B3806487BB8DB180648DB98DB1C3
:1005F0008F7E8DB98DB18B7F8DB98DB1877F8DB990
:100600008DB181608DB98DB182608DB98EB18E7FD3
:040610008EB9089502
:10061400CF92DF92EF92FF92CF93DF93EC01C12C44
:10062400D12C760107C00E94C4028FEFC81AD80AE1
:10063400E80AF80AFE01EC0DFD1D80818111F3CF5B
:0E064400DF91CF91FF90EF90DF90CF9008955F
:10065200813041F028F0823039F0833039F008954A
:100662006BBB089568BB089565BB089562BB08958E
:1006720041E062E081E00E941B0182E08A95F1F78D
:0E06820000C040E062E081E00E941B0108958C
:1006900081E00E94A0028FE99FE00197F1F700C07E
:0A06A000000080E80E94A002089507
:1006AA00EC010E9474030E947303CE010E94750339
:0606BA00CE010E94710355
:0A06C0000E94E8020E94D201089592
:0A06CA000E9460030E947902FDCF38
:0A06D4008FB9779BFECF8FB1089518
:0406DE000C94000078
:0406E2000E9455001D
:0206E600089575
:0206E800089573
:0206EA00089571
:00000001FF
